{
  "contractName": "ElectionDapp",
  "abi": [
    {
      "inputs": [
        {
          "internalType": "uint256",
          "name": "",
          "type": "uint256"
        }
      ],
      "name": "elections",
      "outputs": [
        {
          "internalType": "uint256",
          "name": "id",
          "type": "uint256"
        },
        {
          "internalType": "string",
          "name": "name",
          "type": "string"
        },
        {
          "internalType": "bool",
          "name": "isOpen",
          "type": "bool"
        },
        {
          "internalType": "uint256",
          "name": "candidatesCount",
          "type": "uint256"
        }
      ],
      "stateMutability": "view",
      "type": "function",
      "constant": true
    },
    {
      "inputs": [],
      "name": "electionsCount",
      "outputs": [
        {
          "internalType": "uint256",
          "name": "",
          "type": "uint256"
        }
      ],
      "stateMutability": "view",
      "type": "function",
      "constant": true
    },
    {
      "inputs": [
        {
          "internalType": "string",
          "name": "_name",
          "type": "string"
        }
      ],
      "name": "addElection",
      "outputs": [],
      "stateMutability": "nonpayable",
      "type": "function"
    },
    {
      "inputs": [
        {
          "internalType": "uint256",
          "name": "_electionId",
          "type": "uint256"
        },
        {
          "internalType": "string",
          "name": "_name",
          "type": "string"
        },
        {
          "internalType": "string",
          "name": "_programme",
          "type": "string"
        }
      ],
      "name": "addCandidate",
      "outputs": [],
      "stateMutability": "nonpayable",
      "type": "function"
    },
    {
      "inputs": [
        {
          "internalType": "uint256",
          "name": "_electionId",
          "type": "uint256"
        },
        {
          "internalType": "uint256",
          "name": "_candidateId",
          "type": "uint256"
        }
      ],
      "name": "vote",
      "outputs": [],
      "stateMutability": "nonpayable",
      "type": "function"
    },
    {
      "inputs": [
        {
          "internalType": "uint256",
          "name": "_electionId",
          "type": "uint256"
        }
      ],
      "name": "closeElection",
      "outputs": [],
      "stateMutability": "nonpayable",
      "type": "function"
    },
    {
      "inputs": [
        {
          "internalType": "uint256",
          "name": "_electionId",
          "type": "uint256"
        },
        {
          "internalType": "uint256",
          "name": "_candidateId",
          "type": "uint256"
        }
      ],
      "name": "getCandidate",
      "outputs": [
        {
          "internalType": "uint256",
          "name": "",
          "type": "uint256"
        },
        {
          "internalType": "string",
          "name": "",
          "type": "string"
        },
        {
          "internalType": "string",
          "name": "",
          "type": "string"
        },
        {
          "internalType": "uint256",
          "name": "",
          "type": "uint256"
        }
      ],
      "stateMutability": "view",
      "type": "function",
      "constant": true
    },
    {
      "inputs": [
        {
          "internalType": "uint256",
          "name": "_electionId",
          "type": "uint256"
        }
      ],
      "name": "getCandidatesCount",
      "outputs": [
        {
          "internalType": "uint256",
          "name": "",
          "type": "uint256"
        }
      ],
      "stateMutability": "view",
      "type": "function",
      "constant": true
    },
    {
      "inputs": [
        {
          "internalType": "uint256",
          "name": "_electionId",
          "type": "uint256"
        }
      ],
      "name": "getElection",
      "outputs": [
        {
          "internalType": "uint256",
          "name": "",
          "type": "uint256"
        },
        {
          "internalType": "string",
          "name": "",
          "type": "string"
        },
        {
          "internalType": "bool",
          "name": "",
          "type": "bool"
        },
        {
          "internalType": "uint256",
          "name": "",
          "type": "uint256"
        }
      ],
      "stateMutability": "view",
      "type": "function",
      "constant": true
    }
  ],
  "bytecode": "0x608060405234801561001057600080fd5b50611037806100206000396000f3fe608060405234801561001057600080fd5b50600436106100935760003560e01c80635e6fef01116100665780635e6fef01146101335780639a74c695146101665780639d71077714610184578063b384abef146101b7578063e6c62efc146101d357610093565b806309e33d0714610098578063358b9d97146100b45780633ee95f00146100d05780634bd4644814610100575b600080fd5b6100b260048036038101906100ad9190610a87565b6101ef565b005b6100ce60048036038101906100c99190610a46565b61027b565b005b6100ea60048036038101906100e59190610a87565b61030e565b6040516100f79190610d42565b60405180910390f35b61011a60048036038101906101159190610b2f565b61032e565b60405161012a9493929190610da9565b60405180910390f35b61014d60048036038101906101489190610a87565b61049b565b60405161015d9493929190610d5d565b60405180910390f35b61016e610560565b60405161017b9190610d42565b60405180910390f35b61019e60048036038101906101999190610a87565b610566565b6040516101ae9493929190610d5d565b60405180910390f35b6101d160048036038101906101cc9190610b2f565b610640565b005b6101ed60048036038101906101e89190610ab0565b610817565b005b600060016000838152602001908152602001600020600001541415610249576040517f08c379a000000000000000000000000000000000000000000000000000000000815260040161024090610d22565b60405180910390fd5b60006001600083815260200190815260200160002060020160006101000a81548160ff02191690831515021790555050565b60008081548092919061028d90610f03565b919050555060005460016000805481526020019081526020016000206000018190555080600160008054815260200190815260200160002060010190805190602001906102db929190610926565b5060018060008054815260200190815260200160002060020160006101000a81548160ff02191690831515021790555050565b600060016000838152602001908152602001600020600301549050919050565b6000606080600080600160008881526020019081526020016000206004016000878152602001908152602001600020905080600001548160010182600201836003015482805461037d90610ed1565b80601f01602080910402602001604051908101604052809291908181526020018280546103a990610ed1565b80156103f65780601f106103cb576101008083540402835291602001916103f6565b820191906000526020600020905b8154815290600101906020018083116103d957829003601f168201915b5050505050925081805461040990610ed1565b80601f016020809104026020016040519081016040528092919081815260200182805461043590610ed1565b80156104825780601f1061045757610100808354040283529160200191610482565b820191906000526020600020905b81548152906001019060200180831161046557829003601f168201915b5050505050915094509450945094505092959194509250565b60016020528060005260406000206000915090508060000154908060010180546104c490610ed1565b80601f01602080910402602001604051908101604052809291908181526020018280546104f090610ed1565b801561053d5780601f106105125761010080835404028352916020019161053d565b820191906000526020600020905b81548152906001019060200180831161052057829003601f168201915b5050505050908060020160009054906101000a900460ff16908060030154905084565b60005481565b6000606060008060006001600087815260200190815260200160002090508060000154816001018260020160009054906101000a900460ff1683600301548280546105b090610ed1565b80601f01602080910402602001604051908101604052809291908181526020018280546105dc90610ed1565b80156106295780601f106105fe57610100808354040283529160200191610629565b820191906000526020600020905b81548152906001019060200180831161060c57829003601f168201915b505050505092509450945094509450509193509193565b60006001600084815260200190815260200160002090508060020160009054906101000a900460ff166106a8576040517f08c379a000000000000000000000000000000000000000000000000000000000815260040161069f90610d02565b60405180910390fd5b8060050160003373ffffffffffffffffffffffffffffffffffffffff1673ffffffffffffffffffffffffffffffffffffffff16815260200190815260200160002060009054906101000a900460ff1615610737576040517f08c379a000000000000000000000000000000000000000000000000000000000815260040161072e90610ce2565b60405180910390fd5b60008211801561074b575080600301548211155b61078a576040517f08c379a000000000000000000000000000000000000000000000000000000000815260040161078190610cc2565b60405180910390fd5b80600401600083815260200190815260200160002060030160008154809291906107b390610f03565b919050555060018160050160003373ffffffffffffffffffffffffffffffffffffffff1673ffffffffffffffffffffffffffffffffffffffff16815260200190815260200160002060006101000a81548160ff021916908315150217905550505050565b6000600160008581526020019081526020016000209050600081600001541415610876576040517f08c379a000000000000000000000000000000000000000000000000000000000815260040161086d90610d22565b60405180910390fd5b80600301600081548092919061088b90610f03565b91905055506040518060800160405280826003015481526020018481526020018381526020016000815250816004016000836003015481526020019081526020016000206000820151816000015560208201518160010190805190602001906108f5929190610926565b506040820151816002019080519060200190610912929190610926565b506060820151816003015590505050505050565b82805461093290610ed1565b90600052602060002090601f016020900481019282610954576000855561099b565b82601f1061096d57805160ff191683800117855561099b565b8280016001018555821561099b579182015b8281111561099a57825182559160200191906001019061097f565b5b5090506109a891906109ac565b5090565b5b808211156109c55760008160009055506001016109ad565b5090565b60006109dc6109d784610e2d565b610dfc565b9050828152602081018484840111156109f457600080fd5b6109ff848285610e8f565b509392505050565b600082601f830112610a1857600080fd5b8135610a288482602086016109c9565b91505092915050565b600081359050610a4081610fea565b92915050565b600060208284031215610a5857600080fd5b600082013567ffffffffffffffff811115610a7257600080fd5b610a7e84828501610a07565b91505092915050565b600060208284031215610a9957600080fd5b6000610aa784828501610a31565b91505092915050565b600080600060608486031215610ac557600080fd5b6000610ad386828701610a31565b935050602084013567ffffffffffffffff811115610af057600080fd5b610afc86828701610a07565b925050604084013567ffffffffffffffff811115610b1957600080fd5b610b2586828701610a07565b9150509250925092565b60008060408385031215610b4257600080fd5b6000610b5085828601610a31565b9250506020610b6185828601610a31565b9150509250929050565b610b7481610e79565b82525050565b6000610b8582610e5d565b610b8f8185610e68565b9350610b9f818560208601610e9e565b610ba881610fd9565b840191505092915050565b6000610bc0601183610e68565b91507f43616e646964617420696e76616c6964650000000000000000000000000000006000830152602082019050919050565b6000610c00600983610e68565b91507f44656a6120766f746500000000000000000000000000000000000000000000006000830152602082019050919050565b6000610c40600f83610e68565b91507f456c656374696f6e206665726d656500000000000000000000000000000000006000830152602082019050919050565b6000610c80601483610e68565b91507f456c656374696f6e20696e6578697374616e74650000000000000000000000006000830152602082019050919050565b610cbc81610e85565b82525050565b60006020820190508181036000830152610cdb81610bb3565b9050919050565b60006020820190508181036000830152610cfb81610bf3565b9050919050565b60006020820190508181036000830152610d1b81610c33565b9050919050565b60006020820190508181036000830152610d3b81610c73565b9050919050565b6000602082019050610d576000830184610cb3565b92915050565b6000608082019050610d726000830187610cb3565b8181036020830152610d848186610b7a565b9050610d936040830185610b6b565b610da06060830184610cb3565b95945050505050565b6000608082019050610dbe6000830187610cb3565b8181036020830152610dd08186610b7a565b90508181036040830152610de48185610b7a565b9050610df36060830184610cb3565b95945050505050565b6000604051905081810181811067ffffffffffffffff82111715610e2357610e22610faa565b5b8060405250919050565b600067ffffffffffffffff821115610e4857610e47610faa565b5b601f19601f8301169050602081019050919050565b600081519050919050565b600082825260208201905092915050565b60008115159050919050565b6000819050919050565b82818337600083830152505050565b60005b83811015610ebc578082015181840152602081019050610ea1565b83811115610ecb576000848401525b50505050565b60006002820490506001821680610ee957607f821691505b60208210811415610efd57610efc610f7b565b5b50919050565b6000610f0e82610e85565b91507fffffffffffffffffffffffffffffffffffffffffffffffffffffffffffffffff821415610f4157610f40610f4c565b5b600182019050919050565b7f4e487b7100000000000000000000000000000000000000000000000000000000600052601160045260246000fd5b7f4e487b7100000000000000000000000000000000000000000000000000000000600052602260045260246000fd5b7f4e487b7100000000000000000000000000000000000000000000000000000000600052604160045260246000fd5b6000601f19601f8301169050919050565b610ff381610e85565b8114610ffe57600080fd5b5056fea2646970667358221220b3329fe11e848de249c560cc6c8cd27cdbdf09e06f5d8b7fb2bd832a8420df2064736f6c63430008000033",
  "immutableReferences": {},
  "source": "// SPDX-License-Identifier: MIT\npragma solidity ^0.8.0;\n\ncontract ElectionDapp {\n    struct Candidate {\n        uint id;\n        string name;\n        string programme;\n        uint voteCount;\n    }\n\n    struct Election {\n        uint id;\n        string name;\n        bool isOpen;\n        uint candidatesCount;\n        mapping(uint => Candidate) candidates;\n        mapping(address => bool) hasVoted;\n    }\n\n    uint public electionsCount;\n    mapping(uint => Election) public elections;\n\n    // Ajouter une nouvelle lection\n    function addElection(string memory _name) public {\n        electionsCount++;\n        elections[electionsCount].id = electionsCount;\n        elections[electionsCount].name = _name;\n        elections[electionsCount].isOpen = true;\n    }\n\n    // Ajouter un candidat  une lection\n    function addCandidate(uint _electionId, string memory _name, string memory _programme) public {\n        Election storage e = elections[_electionId];\n        require(e.id != 0, \"Election inexistante\");\n        e.candidatesCount++;\n        e.candidates[e.candidatesCount] = Candidate(e.candidatesCount, _name, _programme, 0);\n    }\n\n    // Voter pour un candidat d'une lection\n    function vote(uint _electionId, uint _candidateId) public {\n        Election storage e = elections[_electionId];\n        require(e.isOpen, \"Election fermee\");\n        require(!e.hasVoted[msg.sender], \"Deja vote\");\n        require(_candidateId > 0 && _candidateId <= e.candidatesCount, \"Candidat invalide\");\n\n        e.candidates[_candidateId].voteCount++;\n        e.hasVoted[msg.sender] = true;\n    }\n\n    // Fermer une election\n    function closeElection(uint _electionId) public {\n        require(elections[_electionId].id != 0, \"Election inexistante\");\n        elections[_electionId].isOpen = false;\n    }\n\n    // Lire les dtails d'un candidat\n    function getCandidate(uint _electionId, uint _candidateId)\n        public\n        view\n        returns (uint, string memory, string memory, uint)\n    {\n        Candidate storage c = elections[_electionId].candidates[_candidateId];\n        return (c.id, c.name, c.programme, c.voteCount);\n    }\n\n    // Obtenir le nombre de candidats dans une lection\n    function getCandidatesCount(uint _electionId) public view returns (uint) {\n        return elections[_electionId].candidatesCount;\n    }\n\n    // Lire les informations d'une lection\n    function getElection(uint _electionId)\n        public\n        view\n        returns (uint, string memory, bool, uint)\n    {\n        Election storage e = elections[_electionId];\n        return (e.id, e.name, e.isOpen, e.candidatesCount);\n    }\n}\n",
  "sourcePath": "C:\\Users\\Ange Morelle\\Desktop\\Ange\\ElectionDapp\\ElectionContrat\\contracts\\Election.sol",
  "compiler": {
    "name": "solc",
    "version": "0.8.0+commit.c7dfd78e.Emscripten.clang"
  },
  "schemaVersion": "3.4.16",
  "updatedAt": "2025-07-06T12:54:19.348Z",
  "networkType": "ethereum",
  "devdoc": {
    "kind": "dev",
    "methods": {},
    "version": 1
  },
  "userdoc": {
    "kind": "user",
    "methods": {},
    "version": 1
  }
}